:020000040800F2
:100000000000022055020008590200085B020008A7
:10001000990200089B020008B102000800000000DD
:10002000000000000000000000000000C7020008FF
:10003000C902000800000000CB0200082D0E0008D5
:10004000E1020008E1020008E1020008E102000804
:10005000E1020008E1020008E1020008E1020008F4
:10006000E1020008E1020008E1020008E1020008E4
:10007000E1020008E1020008E1020008E1020008D4
:10008000E1020008E1020008E1020008E1020008C4
:10009000E1020008E1020008E1020008E1020008B4
:1000A000E1020008E1020008E1020008E1020008A4
:1000B000E1020008E1020008E1020008E102000894
:1000C000E1020008E1020008E1020008E102000884
:1000D000E1020008E1020008E1020008E102000874
:1000E000E1020008E1020008E1020008E102000864
:1000F000E1020008E1020008E1020008E102000854
:10010000E1020008E1020008E1020008E102000843
:10011000E1020008E1020008E1020008E102000833
:10012000E1020008E1020008E1020008E102000823
:10013000E1020008E1020008E1020008E102000813
:10014000E1020008E1020008E1020008E102000803
:10015000E1020008E1020008E1020008E1020008F3
:10016000E1020008E1020008E1020008E1020008E3
:10017000E1020008E1020008E102000800000000BE
:10018000E1020008E102000807B500F07DFD274B01
:100190002748834226D3274A274900208A422DD365
:1001A00000F098FE254D264C01A9684600F00EFD92
:1001B000641BA4100026B44229DC224D224C641B8F
:1001C000A4100026B44227DCDDE9000100F0AEFEF9
:1001D0001E4D1F4C641B0646A410002C21DC30462B
:1001E00000F092FCD3E900120C3353F8044C891A46
:1001F0009442CED9555815600432F9E752F8083BBD
:1002000052F8044C9C42C9D943F8040BFAE755F85C
:10021000043B98470136CEE755F8043B9847013632
:10022000D0E7013C55F824309847D6E7E4020008AF
:10023000FC020008FC0200080C0300080C03000884
:100240000C0300080C0300080C0300080C03000852
:100250000C0300081E480047FEE71EF0040F0CBF09
:10026000EFF30880EFF3098071461A4A104710B582
:10027000084C236B9B070BD5E36A002B08DA4BF67F
:10028000AB6100F00DFD18B14FF00043E36210BD0B
:10029000FEE700BF00ED00E0FEE71EF0040F0CBF1C
:1002A000EFF30880EFF3098071460B4A1047FEE731
:1002B0001EF0040F0CBFEFF30880EFF309807146C6
:1002C000064A1047FEE7FEE7FEE7FEE7704700003C
:1002D000890100086F020008AF020008C50200088B
:0202E000FEE737
:1002E400B41000080000002004000020B41000082E
:1002F4000000001000000010040000203001002065
:080304000000001000000010D1
:10030C0010B5084B044618684FF47A73B0FBF3F041
:10031C0000F086F8002221464FF0FF3000F04CF838
:10032C00002010BD0000002008B50B4B1A6842F4E9
:10033C0000721A601A6842F480621A601A6842F4F9
:10034C0080721A60032000F025F80F20FFF7D8FF09
:10035C0000F00CFE002008BD003C0240024A13686D
:10036C0001331360704700BF28010020014B18684F
:10037C00704700BF2801002013B50190FFF7F6FF6E
:10038C000446FFF7F3FF019B001B9842F9D302B020
:10039C0010BD0000074AD36823F4E06300021B047D
:1003AC0000F4E0601B0C184340F0BF6040F40030D8
:1003BC00D060704700ED00E0174B70B5DC68C4F3FB
:1003CC000224C4F10705042D04F1040328BF0425FD
:1003DC004FF0FF36062B06FA05F58CBF033C0024C4
:1003EC0021EA0501A14006FA04F422EA04030028DC
:1003FC0043EA0103A8BF00F160404FEA0313BCBFFE
:10040C0000F00F00054ADBB2AABF00F5614013549F
:10041C0080F8003370BD00BF00ED00E014ED00E08B
:10042C000138B0F1807F0AD2064B074A5860F021A0
:10043C0082F823100020072298601A607047012070
:10044C00704700BF10E000E000ED00E0044B1A68BC
:10045C0004280CBF42F0040222F004021A60704718
:10046C0010E000E02DE9F04F85B00B68DFF8B881A3
:10047C006B4ADFF8B891019300234FF0010C019CFB
:10048C000CFA03FC04EA0C06B44540F0B2804C684C
:10049C0024F01007022F16D14FEAD30A00EB8A0A78
:1004AC0003F0070BDAF820504FEA8B0B4FF00F0ECE
:1004BC000EFA0BFE25EA0E0E0D6905FA0BF545EA50
:1004CC000E05CAF820504FEA430A0325D0F800B0B5
:1004DC0005FA0AF5ED4304F0030E05EA0B0B0EFAD0
:1004EC000AFE013F4EEA0B0E012FC0F800E011D8B6
:1004FC00876807EA050BCF6807FA0AFE4EEA0B0776
:10050C008760476827EA0C0CC4F300179F4047EA42
:10051C000C074760C7683D408F6807FA0AF73D43F0
:10052C00C560E50065D54FF0000BCDF80CB0D8F8E0
:10053C0044703C4D47F48047C8F84470D8F8447078
:10054C0007F480470397039F23F0030707F18047C5
:10055C0007F59C3703F0030ED7F808A04FEA8E0E70
:10056C004FF00F0C0CFA0EFCA8422AEA0C0C47D0E8
:10057C0005F58065A84245D005F58065A84243D0B5
:10058C0005F58065A84241D005F58065A8423FD0AD
:10059C0048453FD005F50065A8423DD005F580657E
:1005AC00A8423BD005F58065A8420CBF082509255B
:1005BC0005FA0EF545EA0C05BD601568F74314F411
:1005CC00803F0CBF3D4035431560556814F4003F27
:1005DC000CBF3D4035435560956814F4801F0CBF2B
:1005EC003D4035439560D568A40254BF3D4035432A
:1005FC00D5600133102B7FF440AF05B0BDE8F08F10
:10060C005D46D5E70125D3E70225D1E70325CFE7E2
:10061C000425CDE70525CBE70625C9E70725C7E760
:10062C00003C01400000024000380240001402402F
:10063C000AB1816170470904FBE700000368F7B554
:10064C000446D80738D4236899076DD423681E074D
:10065C0000F1B98023685D0728D500230193A64BD0
:10066C00A64D1A6C42F080521A641B6C03F0805336
:10067C000193019B2B6843F480732B60FFF776FE8C
:10068C0006462B68DA0540F1C0809D4B227A1A7021
:10069C00A368002B00F0C780FFF768FE964D064656
:1006AC0041F288372B6F9B0740F1B680A269002A74
:1006BC0040F0C980002015E08F4B9A6802F00C02C4
:1006CC00042A07D09A6802F00C02082A0CD15B6845
:1006DC005A0209D5884B1B689B03B4D56368002B61
:1006EC00B1D1012003B0F0BD864B22791A7063683A
:1006FC006BB1FFF73BFE804D06462B689F03A2D4DF
:10070C00FFF734FE801B6428F7D90320EAE7FFF7D4
:10071C002DFE794D06462B68980394D5FFF726FEDF
:10072C00801B6428F7D9F0E7734B9A6812F00C0F12
:10073C0007D09A6802F00C02082A16D15B6859029D
:10074C0013D46D4B1A68920702D5E268012AC8D1FE
:10075C001868F82292FAA2F2B2FA82F122698A405F
:10076C0020F0F8010A431A6070E7E268664BDAB1D0
:10077C0001221A60FFF7FAFD5F4D06462B689B07B6
:10078C000CD52968F82393FAA3F3B3FA83F22369FF
:10079C00934021F0F80213432B6057E7FFF7E6FD77
:1007AC00801B0228EAD9B0E71A60FFF7DFFD524D33
:1007BC0006462B689F077FF549AFFFF7D7FD801BD7
:1007CC000228F6D9A1E76269504B7AB101221A606E
:1007DC00FFF7CCFD484D06466B6F98073FF53AAFD7
:1007EC00FFF7C4FD801B0228F6D98EE71A60FFF7CD
:1007FC00BDFD414D06466B6F99077FF52BAFFFF79B
:10080C00B5FD801B0228F6D97FE7FFF7AFFD801BF3
:10081C0002287FF636AF78E7FFF7A8FD801BB842B9
:10082C007FF640AF71E7FFF7A1FD334D064641F26D
:10083C0088372B6F98077FF539AFFFF797FD801B33
:10084C00B842F6D961E72C4DAB6803F00C03082BCA
:10085C003FF447AF2E4E0023022A33603ED1FFF700
:10086C0085FD07462B68990132D447F6C07797FA75
:10087C00A7F74FF44032B7FA87F792FAA2F24FF08B
:10088C007061B2FA82F091FAA1F1D4E90732134304
:10089C00626A02FA07F7A26A5208013A82403B43A5
:1008AC001343E26A144CB1FA81F102FA01F10B43E1
:1008BC006B6001233360FFF759FD054623689A01ED
:1008CC003FF5F8AEFFF752FD401B0228F6D91CE7A6
:1008DC00FFF74CFDC01B0228C4D916E7FFF746FDF5
:1008EC0004462B689B017FF5E5AEFFF73FFD001B2F
:1008FC000228F6D909E700BF00380240007000401A
:10090C00703802400238024000004742800E4742D5
:10091C0060004742194A936803F00C03042B10B58E
:10092C0028D0082B28D15168536801F03F0113F4EB
:10093C00800F47F6C074536894FAA4F0B0FA80F0B4
:10094C0003EA040323FA00F314BF0D480D48B0FB6F
:10095C00F1F05843094B4FF440325B6892FAA2F223
:10096C00B2FA82F203F44033D34001335B00B0FBA4
:10097C00F3F010BD0248FCE70248FAE700380240E9
:10098C00007A030A0024F400554B1A6802F00F0297
:10099C008A422DE9F04105460E462FD32A6894076A
:1009AC0036D4D0073CD44E4B1A6802F00F02B24238
:1009BC0000F286802A68510700F18A80130707D558
:1009CC00484A2969936823F4604343EAC10393605E
:1009DC00FFF7A0FF434BF0229B6892FAA2F2B2FA07
:1009EC0082F203F0F003D3403F4AD35CD8403F4B34
:1009FC0018600F20FFF784FC002007E0CAB21A70C1
:100A0C001B6803F00F038B42C8D00120BDE8F081B6
:100A1C003449A8688B6823F0F00303438B60C0E76C
:100A2C006A68304B012A1DD11B6813F4003FECD0CF
:100A3C002C4CA36823F003031343A360FFF796FC2D
:100A4C006B68012B074641F2883815D1A36803F077
:100A5C000C03042BA7D0FFF789FCC01B4045F5D92C
:100A6C000320D3E7911E01291B6802D813F0007FE5
:100A7C00DDE713F0020FDAE7022B0AD1A36803F0CB
:100A8C000C03082B8FD0FFF771FCC01B4045F5D928
:100A9C00E6E7032B0FD1A36803F00C030C2B82D0D9
:100AAC00FFF764FCC01B4045F5D9D9E7FFF75EFCA6
:100ABC00C01B4045D4D8A36813F00C0FF6D172E7D5
:100ACC00F2B21A701B6803F00F03B3429DD171E7A9
:100ADC000449E8688B6823F4E05303438B606DE7AB
:100AEC00003C0240003802408E0F0008000000203D
:100AFC00014B1868704700BF00000020054B064CE6
:100B0C0000B5002818BF1C46182528462146ABBE48
:100B1C000446FEE723000200260002002DE9FF47F1
:100B2C00DFF89890CDF804904FF003080023CDF82F
:100B3C000C800124029301AF20463946ABBE05461A
:100B4C001A4ECDF804900423CDF80C803560029336
:100B5C0020463946ABBE8246154DCDF8049008238D
:100B6C00CDF80C80C5F800A0029320463946ABBEE8
:100B7C000446104A1460013404BF2B6813600E4BFA
:100B8C0000214FF0FF3043F8310001311429FAD124
:100B9C00316828681268196000215960C3E90201A4
:100BAC00C3E9042104B0BDE8F08700BF8000002039
:100BBC00840000207C000020880000209E0F00088C
:100BCC002DE9F7434F232A4F009706460D46019314
:100BDC001524E84620464146ABBE04467CB10023B2
:100BEC003B70244B01211F60224B002243F8212033
:100BFC0031602B60FFF792FF03B0BDE8F0830098E3
:100C0C00DFF874C0DFF86C8087F84F40234621462C
:100C1C00A64690F9002012B90029E0D0E4E7A4B967
:100C2C0012F90C90B9F1000F0DDB092A0BD0082931
:100C3C00DADC222A01D0272A01D10130134648F8E8
:100C4C002100012401310130E3E733B19342FAD1A1
:100C5C0080F800E000230024F5E71CF90290B9F1BC
:100C6C00000F01DB092AEED180F800E0F3E700BFAA
:100C7C000400002054000020B30F000808B500F059
:100C8C006BF8024B024A9A6008BD00BF00ED00E011
:100C9C000000000838B583691B888B42044652D18A
:100CAC00D0E90035013B302B4DD8DFE803F030485C
:100CBC001E1E444A484841414C4141414141484132
:100CCC00484C41194C234C4C4C4C4C4C4C4C4C4CC3
:100CDC004C4C4C4C4C4C4C4C4C4C4C4C4C414100AA
:100CEC000023C5E90033C5E90233A3690233A361CC
:100CFC00012038BDBFF34F8F1449154BCA6802F45D
:100D0C00E0621343CB60BFF34F8F00BFFDE7114987
:100D1C00286800F02CF958B96B68002BE5D0042B2F
:100D2C0002D102232360E0E7082B01D10323F9E76A
:100D3C004FF0FF33F6E72B68023B012B01D8002361
:100D4C00F0E7AB68EEE70020D3E700BF00ED00E072
:100D5C000400FA059E0F00080C4B1A68002142F0A3
:100D6C0001021A6099601A6822F0847222F48032AF
:100D7C001A60074A5A601A6822F480221A60D960F5
:100D8C00044B4FF000629A60704700BF003802407D
:100D9C001030002400ED00E0174A1849936803F066
:100DAC000C03042B10B50DD0082B0DD0144B0B607D
:100DBC00114B144A9B68C3F30313D25C0B68D340EA
:100DCC000B6010BD104BF2E7546850685268630218
:100DDC00C2F3881200F03F004CBF0B4B084BB3FB27
:100DEC00F0F35343044A5268C2F3014201325200F9
:100DFC00B3FBF2F3DBE700BF003802400000002039
:100E0C000024F400A20F0008007A030A034B1A68AE
:100E1C0012B11A68013A1A60704700BF2C01002009
:100E2C0008B5FFF79BFABDE80840FFF7EFBF0000DD
:100E3C0030B595B00024224B01941A6C42F08052CC
:100E4C001A641B6C03F080530193019B1D4B02949D
:100E5C001A6842F480421A601B6803F480430293C0
:100E6C00029B01234FF48002CDE90833A823CDE97E
:100E7C000F2302254FF4A873CDE9113508A80723D9
:100E8C0013930E95FFF7DAFB0F23CDE903354FF4DF
:100E9C00A0514FF48053CDE9061303A80521059406
:100EAC00FFF772FDFFF724FE4FF47A73B0FBF3F0FB
:100EBC00FFF7B6FA0420FFF7C9FA15B030BD00BF32
:100ECC00003802400070004008B5FFF72DFAFFF71C
:100EDC00AFFFBDE80840FFF75FBF00007FB5FFF72D
:100EEC0023FA002300930C4B0C481A6B42F00802B7
:100EFC001A631B6B03F008030093009B4FF47042C2
:100F0C000123CDE9012301A90222CDE90323FFF737
:100F1C00A9FA07B05DF804FB00380240000C02404F
:100F2C0008B5FFF7DBFF104C204601224FF440516F
:100F3C00FFF77EFB00224FF440412046FFF778FB81
:100F4C006420FFF719FA204601224FF44041FFF7C5
:100F5C006FFB204600224FF44051FFF769FB6420E1
:100F6C00FFF70AFAE0E700BF000C0240704710F8E8
:100F7C00012B11F8013B012A28BF9A42F7D0D01A55
:100F8C00704700000000010203040102030406077D
:100F9C0008093A747400000000000000000001020F
:100FAC0003040607080900202020202020202020F0
:100FBC0028282828282020202020202020202020FD
:100FCC00202020202020208810101010101010102D
:100FDC001010101010101004040404040404040471
:100FEC0004101010101010104141414141410101F9
:100FFC0001010101010101010101010101010101D5
:10100C0001011010101010104242424242420202E2
:10101C0002020202020202020202020202020202A4
:10102C000202101010102000000000000000000050
:10103C0000000000000000000000000000000000A4
:10104C000000000000000000000000000000000094
:10105C000000000000000000000000000000000084
:10106C000000000000000000000000000000000074
:10107C000000000000000000000000000000000064
:10108C000000000000000000000000000000000054
:10109C000000000000000000000000000000000044
:0710AC00000000000000003D
:0410B4000024F40020
:040000050800018965
:00000001FF
